{
  "_format": "hh-sol-artifact-1",
  "contractName": "DegenToken",
  "sourceName": "contracts/DegenToken.sol",
  "abi": [
    {
      "inputs": [],
      "stateMutability": "nonpayable",
      "type": "constructor"
    },
    {
      "anonymous": false,
      "inputs": [
        {
          "indexed": true,
          "internalType": "address",
          "name": "owner",
          "type": "address"
        },
        {
          "indexed": true,
          "internalType": "address",
          "name": "spender",
          "type": "address"
        },
        {
          "indexed": false,
          "internalType": "uint256",
          "name": "value",
          "type": "uint256"
        }
      ],
      "name": "Approval",
      "type": "event"
    },
    {
      "anonymous": false,
      "inputs": [
        {
          "indexed": true,
          "internalType": "address",
          "name": "from",
          "type": "address"
        },
        {
          "indexed": true,
          "internalType": "address",
          "name": "to",
          "type": "address"
        },
        {
          "indexed": false,
          "internalType": "uint256",
          "name": "value",
          "type": "uint256"
        }
      ],
      "name": "Transfer",
      "type": "event"
    },
    {
      "inputs": [
        {
          "internalType": "address",
          "name": "owner",
          "type": "address"
        },
        {
          "internalType": "address",
          "name": "spender",
          "type": "address"
        }
      ],
      "name": "allowance",
      "outputs": [
        {
          "internalType": "uint256",
          "name": "",
          "type": "uint256"
        }
      ],
      "stateMutability": "view",
      "type": "function"
    },
    {
      "inputs": [
        {
          "internalType": "address",
          "name": "spender",
          "type": "address"
        },
        {
          "internalType": "uint256",
          "name": "amount",
          "type": "uint256"
        }
      ],
      "name": "approve",
      "outputs": [
        {
          "internalType": "bool",
          "name": "",
          "type": "bool"
        }
      ],
      "stateMutability": "nonpayable",
      "type": "function"
    },
    {
      "inputs": [
        {
          "internalType": "address",
          "name": "account",
          "type": "address"
        }
      ],
      "name": "balanceOf",
      "outputs": [
        {
          "internalType": "uint256",
          "name": "",
          "type": "uint256"
        }
      ],
      "stateMutability": "view",
      "type": "function"
    },
    {
      "inputs": [
        {
          "internalType": "uint256",
          "name": "amount",
          "type": "uint256"
        }
      ],
      "name": "burnDegen",
      "outputs": [],
      "stateMutability": "nonpayable",
      "type": "function"
    },
    {
      "inputs": [],
      "name": "decimals",
      "outputs": [
        {
          "internalType": "uint8",
          "name": "",
          "type": "uint8"
        }
      ],
      "stateMutability": "view",
      "type": "function"
    },
    {
      "inputs": [
        {
          "internalType": "address",
          "name": "spender",
          "type": "address"
        },
        {
          "internalType": "uint256",
          "name": "subtractedValue",
          "type": "uint256"
        }
      ],
      "name": "decreaseAllowance",
      "outputs": [
        {
          "internalType": "bool",
          "name": "",
          "type": "bool"
        }
      ],
      "stateMutability": "nonpayable",
      "type": "function"
    },
    {
      "inputs": [
        {
          "internalType": "address",
          "name": "_owner",
          "type": "address"
        }
      ],
      "name": "getDegenBalance",
      "outputs": [
        {
          "internalType": "uint256",
          "name": "",
          "type": "uint256"
        }
      ],
      "stateMutability": "view",
      "type": "function"
    },
    {
      "inputs": [
        {
          "internalType": "address",
          "name": "spender",
          "type": "address"
        },
        {
          "internalType": "uint256",
          "name": "addedValue",
          "type": "uint256"
        }
      ],
      "name": "increaseAllowance",
      "outputs": [
        {
          "internalType": "bool",
          "name": "",
          "type": "bool"
        }
      ],
      "stateMutability": "nonpayable",
      "type": "function"
    },
    {
      "inputs": [
        {
          "internalType": "address",
          "name": "_player",
          "type": "address"
        },
        {
          "internalType": "uint256",
          "name": "_amount",
          "type": "uint256"
        }
      ],
      "name": "mintDegen",
      "outputs": [],
      "stateMutability": "nonpayable",
      "type": "function"
    },
    {
      "inputs": [],
      "name": "name",
      "outputs": [
        {
          "internalType": "string",
          "name": "",
          "type": "string"
        }
      ],
      "stateMutability": "view",
      "type": "function"
    },
    {
      "inputs": [],
      "name": "platformOwner",
      "outputs": [
        {
          "internalType": "address",
          "name": "",
          "type": "address"
        }
      ],
      "stateMutability": "view",
      "type": "function"
    },
    {
      "inputs": [
        {
          "internalType": "uint8",
          "name": "_Item",
          "type": "uint8"
        }
      ],
      "name": "redeem",
      "outputs": [
        {
          "internalType": "bool",
          "name": "",
          "type": "bool"
        }
      ],
      "stateMutability": "payable",
      "type": "function"
    },
    {
      "inputs": [],
      "name": "showStore",
      "outputs": [
        {
          "internalType": "string",
          "name": "",
          "type": "string"
        }
      ],
      "stateMutability": "pure",
      "type": "function"
    },
    {
      "inputs": [],
      "name": "symbol",
      "outputs": [
        {
          "internalType": "string",
          "name": "",
          "type": "string"
        }
      ],
      "stateMutability": "view",
      "type": "function"
    },
    {
      "inputs": [],
      "name": "totalSupply",
      "outputs": [
        {
          "internalType": "uint256",
          "name": "",
          "type": "uint256"
        }
      ],
      "stateMutability": "view",
      "type": "function"
    },
    {
      "inputs": [
        {
          "internalType": "address",
          "name": "to",
          "type": "address"
        },
        {
          "internalType": "uint256",
          "name": "amount",
          "type": "uint256"
        }
      ],
      "name": "transfer",
      "outputs": [
        {
          "internalType": "bool",
          "name": "",
          "type": "bool"
        }
      ],
      "stateMutability": "nonpayable",
      "type": "function"
    },
    {
      "inputs": [
        {
          "internalType": "address",
          "name": "to",
          "type": "address"
        },
        {
          "internalType": "uint256",
          "name": "amount",
          "type": "uint256"
        }
      ],
      "name": "transferDegen",
      "outputs": [
        {
          "internalType": "bool",
          "name": "",
          "type": "bool"
        }
      ],
      "stateMutability": "nonpayable",
      "type": "function"
    },
    {
      "inputs": [
        {
          "internalType": "address",
          "name": "from",
          "type": "address"
        },
        {
          "internalType": "address",
          "name": "to",
          "type": "address"
        },
        {
          "internalType": "uint256",
          "name": "amount",
          "type": "uint256"
        }
      ],
      "name": "transferFrom",
      "outputs": [
        {
          "internalType": "bool",
          "name": "",
          "type": "bool"
        }
      ],
      "stateMutability": "nonpayable",
      "type": "function"
    }
  ],
  "bytecode": "0x60806040523480156200001157600080fd5b506040518060400160405280600581526020017f446567656e0000000000000000000000000000000000000000000000000000008152506040518060400160405280600381526020017f44474e0000000000000000000000000000000000000000000000000000000000815250816003908051906020019062000096929190620000f9565b508060049080519060200190620000af929190620000f9565b50505033600560006101000a81548173ffffffffffffffffffffffffffffffffffffffff021916908373ffffffffffffffffffffffffffffffffffffffff1602179055506200020e565b8280546200010790620001d8565b90600052602060002090601f0160209004810192826200012b576000855562000177565b82601f106200014657805160ff191683800117855562000177565b8280016001018555821562000177579182015b828111156200017657825182559160200191906001019062000159565b5b5090506200018691906200018a565b5090565b5b80821115620001a55760008160009055506001016200018b565b5090565b7f4e487b7100000000000000000000000000000000000000000000000000000000600052602260045260246000fd5b60006002820490506001821680620001f157607f821691505b60208210811415620002085762000207620001a9565b5b50919050565b612137806200021e6000396000f3fe6080604052600436106101095760003560e01c80637c289e3d11610095578063a9059cbb11610064578063a9059cbb146103c0578063a9d0e2e5146103fd578063c9a12f3414610428578063dd62ed3e14610451578063dfbe250f1461048e57610109565b80637c289e3d146102de578063862278c41461031b57806395d89b4114610358578063a457c2d71461038357610109565b8063313ce567116100dc578063313ce567146101de57806332271faf1461020957806339509351146102395780634df8ccb11461027657806370a08231146102a157610109565b806306fdde031461010e578063095ea7b31461013957806318160ddd1461017657806323b872dd146101a1575b600080fd5b34801561011a57600080fd5b506101236104b7565b6040516101309190611593565b60405180910390f35b34801561014557600080fd5b50610160600480360381019061015b919061164e565b610549565b60405161016d91906116a9565b60405180910390f35b34801561018257600080fd5b5061018b61056c565b60405161019891906116d3565b60405180910390f35b3480156101ad57600080fd5b506101c860048036038101906101c391906116ee565b610576565b6040516101d591906116a9565b60405180910390f35b3480156101ea57600080fd5b506101f36105a5565b604051610200919061175d565b60405180910390f35b610223600480360381019061021e91906117a4565b6105ae565b60405161023091906116a9565b60405180910390f35b34801561024557600080fd5b50610260600480360381019061025b919061164e565b61090e565b60405161026d91906116a9565b60405180910390f35b34801561028257600080fd5b5061028b610945565b60405161029891906117e0565b60405180910390f35b3480156102ad57600080fd5b506102c860048036038101906102c391906117fb565b61096b565b6040516102d591906116d3565b60405180910390f35b3480156102ea57600080fd5b50610305600480360381019061030091906117fb565b6109b3565b60405161031291906116d3565b60405180910390f35b34801561032757600080fd5b50610342600480360381019061033d919061164e565b6109c5565b60405161034f91906116a9565b60405180910390f35b34801561036457600080fd5b5061036d610a29565b60405161037a9190611593565b60405180910390f35b34801561038f57600080fd5b506103aa60048036038101906103a5919061164e565b610abb565b6040516103b791906116a9565b60405180910390f35b3480156103cc57600080fd5b506103e760048036038101906103e2919061164e565b610b32565b6040516103f491906116a9565b60405180910390f35b34801561040957600080fd5b50610412610b55565b60405161041f9190611593565b60405180910390f35b34801561043457600080fd5b5061044f600480360381019061044a919061164e565b610b75565b005b34801561045d57600080fd5b5061047860048036038101906104739190611828565b610c13565b60405161048591906116d3565b60405180910390f35b34801561049a57600080fd5b506104b560048036038101906104b09190611868565b610c9a565b005b6060600380546104c6906118c4565b80601f01602080910402602001604051908101604052809291908181526020018280546104f2906118c4565b801561053f5780601f106105145761010080835404028352916020019161053f565b820191906000526020600020905b81548152906001019060200180831161052257829003601f168201915b5050505050905090565b600080610554610cf4565b9050610561818585610cfc565b600191505092915050565b6000600254905090565b600080610581610cf4565b905061058e858285610ec7565b610599858585610f53565b60019150509392505050565b60006012905090565b600060018260ff1614156106cc5760323073ffffffffffffffffffffffffffffffffffffffff166370a08231336040518263ffffffff1660e01b81526004016105f791906117e0565b60206040518083038186803b15801561060f57600080fd5b505afa158015610623573d6000803e3d6000fd5b505050506040513d601f19601f82011682018060405250810190610647919061190b565b1015610688576040517f08c379a000000000000000000000000000000000000000000000000000000000815260040161067f906119aa565b60405180910390fd5b610693336064610549565b506106c233600560009054906101000a900473ffffffffffffffffffffffffffffffffffffffff166032610576565b5060019050610909565b60028260ff1614156107e85760193073ffffffffffffffffffffffffffffffffffffffff166370a08231336040518263ffffffff1660e01b815260040161071391906117e0565b60206040518083038186803b15801561072b57600080fd5b505afa15801561073f573d6000803e3d6000fd5b505050506040513d601f19601f82011682018060405250810190610763919061190b565b10156107a4576040517f08c379a000000000000000000000000000000000000000000000000000000000815260040161079b906119aa565b60405180910390fd5b6107af336019610549565b506107de33600560009054906101000a900473ffffffffffffffffffffffffffffffffffffffff166019610576565b5060019050610909565b60038260ff16141561090457600f3073ffffffffffffffffffffffffffffffffffffffff166370a08231336040518263ffffffff1660e01b815260040161082f91906117e0565b60206040518083038186803b15801561084757600080fd5b505afa15801561085b573d6000803e3d6000fd5b505050506040513d601f19601f8201168201806040525081019061087f919061190b565b10156108c0576040517f08c379a00000000000000000000000000000000000000000000000000000000081526004016108b7906119aa565b60405180910390fd5b6108cb33600f610549565b506108fa33600560009054906101000a900473ffffffffffffffffffffffffffffffffffffffff16600f610576565b5060019050610909565b600090505b919050565b600080610919610cf4565b905061093a81858561092b8589610c13565b61093591906119f9565b610cfc565b600191505092915050565b600560009054906101000a900473ffffffffffffffffffffffffffffffffffffffff1681565b60008060008373ffffffffffffffffffffffffffffffffffffffff1673ffffffffffffffffffffffffffffffffffffffff168152602001908152602001600020549050919050565b60006109be8261096b565b9050919050565b600081806109d23361096b565b1015610a13576040517f08c379a0000000000000000000000000000000000000000000000000000000008152600401610a0a90611ac1565b60405180910390fd5b610a1e338585610f53565b600191505092915050565b606060048054610a38906118c4565b80601f0160208091040260200160405190810160405280929190818152602001828054610a64906118c4565b8015610ab15780601f10610a8657610100808354040283529160200191610ab1565b820191906000526020600020905b815481529060010190602001808311610a9457829003601f168201915b5050505050905090565b600080610ac6610cf4565b90506000610ad48286610c13565b905083811015610b19576040517f08c379a0000000000000000000000000000000000000000000000000000000008152600401610b1090611b53565b60405180910390fd5b610b268286868403610cfc565b60019250505092915050565b600080610b3d610cf4565b9050610b4a818585610f53565b600191505092915050565b60606040518060600160405280602681526020016120dc60269139905090565b600560009054906101000a900473ffffffffffffffffffffffffffffffffffffffff1673ffffffffffffffffffffffffffffffffffffffff163373ffffffffffffffffffffffffffffffffffffffff1614610c05576040517f08c379a0000000000000000000000000000000000000000000000000000000008152600401610bfc90611be5565b60405180910390fd5b610c0f82826111cb565b5050565b6000600160008473ffffffffffffffffffffffffffffffffffffffff1673ffffffffffffffffffffffffffffffffffffffff16815260200190815260200160002060008373ffffffffffffffffffffffffffffffffffffffff1673ffffffffffffffffffffffffffffffffffffffff16815260200190815260200160002054905092915050565b8080610ca53361096b565b1015610ce6576040517f08c379a0000000000000000000000000000000000000000000000000000000008152600401610cdd90611ac1565b60405180910390fd5b610cf03383611322565b5050565b600033905090565b600073ffffffffffffffffffffffffffffffffffffffff168373ffffffffffffffffffffffffffffffffffffffff161415610d6c576040517f08c379a0000000000000000000000000000000000000000000000000000000008152600401610d6390611c77565b60405180910390fd5b600073ffffffffffffffffffffffffffffffffffffffff168273ffffffffffffffffffffffffffffffffffffffff161415610ddc576040517f08c379a0000000000000000000000000000000000000000000000000000000008152600401610dd390611d09565b60405180910390fd5b80600160008573ffffffffffffffffffffffffffffffffffffffff1673ffffffffffffffffffffffffffffffffffffffff16815260200190815260200160002060008473ffffffffffffffffffffffffffffffffffffffff1673ffffffffffffffffffffffffffffffffffffffff168152602001908152602001600020819055508173ffffffffffffffffffffffffffffffffffffffff168373ffffffffffffffffffffffffffffffffffffffff167f8c5be1e5ebec7d5bd14f71427d1e84f3dd0314c0f7b2291e5b200ac8c7c3b92583604051610eba91906116d3565b60405180910390a3505050565b6000610ed38484610c13565b90507fffffffffffffffffffffffffffffffffffffffffffffffffffffffffffffffff8114610f4d5781811015610f3f576040517f08c379a0000000000000000000000000000000000000000000000000000000008152600401610f3690611d75565b60405180910390fd5b610f4c8484848403610cfc565b5b50505050565b600073ffffffffffffffffffffffffffffffffffffffff168373ffffffffffffffffffffffffffffffffffffffff161415610fc3576040517f08c379a0000000000000000000000000000000000000000000000000000000008152600401610fba90611e07565b60405180910390fd5b600073ffffffffffffffffffffffffffffffffffffffff168273ffffffffffffffffffffffffffffffffffffffff161415611033576040517f08c379a000000000000000000000000000000000000000000000000000000000815260040161102a90611e99565b60405180910390fd5b61103e8383836114f0565b60008060008573ffffffffffffffffffffffffffffffffffffffff1673ffffffffffffffffffffffffffffffffffffffff168152602001908152602001600020549050818110156110c4576040517f08c379a00000000000000000000000000000000000000000000000000000000081526004016110bb90611f2b565b60405180910390fd5b8181036000808673ffffffffffffffffffffffffffffffffffffffff1673ffffffffffffffffffffffffffffffffffffffff16815260200190815260200160002081905550816000808573ffffffffffffffffffffffffffffffffffffffff1673ffffffffffffffffffffffffffffffffffffffff168152602001908152602001600020600082825401925050819055508273ffffffffffffffffffffffffffffffffffffffff168473ffffffffffffffffffffffffffffffffffffffff167fddf252ad1be2c89b69c2b068fc378daa952ba7f163c4a11628f55a4df523b3ef846040516111b291906116d3565b60405180910390a36111c58484846114f5565b50505050565b600073ffffffffffffffffffffffffffffffffffffffff168273ffffffffffffffffffffffffffffffffffffffff16141561123b576040517f08c379a000000000000000000000000000000000000000000000000000000000815260040161123290611f97565b60405180910390fd5b611247600083836114f0565b806002600082825461125991906119f9565b92505081905550806000808473ffffffffffffffffffffffffffffffffffffffff1673ffffffffffffffffffffffffffffffffffffffff168152602001908152602001600020600082825401925050819055508173ffffffffffffffffffffffffffffffffffffffff16600073ffffffffffffffffffffffffffffffffffffffff167fddf252ad1be2c89b69c2b068fc378daa952ba7f163c4a11628f55a4df523b3ef8360405161130a91906116d3565b60405180910390a361131e600083836114f5565b5050565b600073ffffffffffffffffffffffffffffffffffffffff168273ffffffffffffffffffffffffffffffffffffffff161415611392576040517f08c379a000000000000000000000000000000000000000000000000000000000815260040161138990612029565b60405180910390fd5b61139e826000836114f0565b60008060008473ffffffffffffffffffffffffffffffffffffffff1673ffffffffffffffffffffffffffffffffffffffff16815260200190815260200160002054905081811015611424576040517f08c379a000000000000000000000000000000000000000000000000000000000815260040161141b906120bb565b60405180910390fd5b8181036000808573ffffffffffffffffffffffffffffffffffffffff1673ffffffffffffffffffffffffffffffffffffffff1681526020019081526020016000208190555081600260008282540392505081905550600073ffffffffffffffffffffffffffffffffffffffff168373ffffffffffffffffffffffffffffffffffffffff167fddf252ad1be2c89b69c2b068fc378daa952ba7f163c4a11628f55a4df523b3ef846040516114d791906116d3565b60405180910390a36114eb836000846114f5565b505050565b505050565b505050565b600081519050919050565b600082825260208201905092915050565b60005b83811015611534578082015181840152602081019050611519565b83811115611543576000848401525b50505050565b6000601f19601f8301169050919050565b6000611565826114fa565b61156f8185611505565b935061157f818560208601611516565b61158881611549565b840191505092915050565b600060208201905081810360008301526115ad818461155a565b905092915050565b600080fd5b600073ffffffffffffffffffffffffffffffffffffffff82169050919050565b60006115e5826115ba565b9050919050565b6115f5816115da565b811461160057600080fd5b50565b600081359050611612816115ec565b92915050565b6000819050919050565b61162b81611618565b811461163657600080fd5b50565b60008135905061164881611622565b92915050565b60008060408385031215611665576116646115b5565b5b600061167385828601611603565b925050602061168485828601611639565b9150509250929050565b60008115159050919050565b6116a38161168e565b82525050565b60006020820190506116be600083018461169a565b92915050565b6116cd81611618565b82525050565b60006020820190506116e860008301846116c4565b92915050565b600080600060608486031215611707576117066115b5565b5b600061171586828701611603565b935050602061172686828701611603565b925050604061173786828701611639565b9150509250925092565b600060ff82169050919050565b61175781611741565b82525050565b6000602082019050611772600083018461174e565b92915050565b61178181611741565b811461178c57600080fd5b50565b60008135905061179e81611778565b92915050565b6000602082840312156117ba576117b96115b5565b5b60006117c88482850161178f565b91505092915050565b6117da816115da565b82525050565b60006020820190506117f560008301846117d1565b92915050565b600060208284031215611811576118106115b5565b5b600061181f84828501611603565b91505092915050565b6000806040838503121561183f5761183e6115b5565b5b600061184d85828601611603565b925050602061185e85828601611603565b9150509250929050565b60006020828403121561187e5761187d6115b5565b5b600061188c84828501611639565b91505092915050565b7f4e487b7100000000000000000000000000000000000000000000000000000000600052602260045260246000fd5b600060028204905060018216806118dc57607f821691505b602082108114156118f0576118ef611895565b5b50919050565b60008151905061190581611622565b92915050565b600060208284031215611921576119206115b5565b5b600061192f848285016118f6565b91505092915050565b7f4e6f7420656e6f75676820446567656e20546f6b656e7320746f20726564656560008201527f6d00000000000000000000000000000000000000000000000000000000000000602082015250565b6000611994602183611505565b915061199f82611938565b604082019050919050565b600060208201905081810360008301526119c381611987565b9050919050565b7f4e487b7100000000000000000000000000000000000000000000000000000000600052601160045260246000fd5b6000611a0482611618565b9150611a0f83611618565b9250827fffffffffffffffffffffffffffffffffffffffffffffffffffffffffffffffff03821115611a4457611a436119ca565b5b828201905092915050565b7f4e6f7420656e6f75676820446567656e20546f6b656e20746f207472616e736660008201527f6572000000000000000000000000000000000000000000000000000000000000602082015250565b6000611aab602283611505565b9150611ab682611a4f565b604082019050919050565b60006020820190508181036000830152611ada81611a9e565b9050919050565b7f45524332303a2064656372656173656420616c6c6f77616e63652062656c6f7760008201527f207a65726f000000000000000000000000000000000000000000000000000000602082015250565b6000611b3d602583611505565b9150611b4882611ae1565b604082019050919050565b60006020820190508181036000830152611b6c81611b30565b9050919050565b7f796f7520617265206e6f7420746865206f776e6572206f662074686520706c6160008201527f74666f726d000000000000000000000000000000000000000000000000000000602082015250565b6000611bcf602583611505565b9150611bda82611b73565b604082019050919050565b60006020820190508181036000830152611bfe81611bc2565b9050919050565b7f45524332303a20617070726f76652066726f6d20746865207a65726f2061646460008201527f7265737300000000000000000000000000000000000000000000000000000000602082015250565b6000611c61602483611505565b9150611c6c82611c05565b604082019050919050565b60006020820190508181036000830152611c9081611c54565b9050919050565b7f45524332303a20617070726f766520746f20746865207a65726f20616464726560008201527f7373000000000000000000000000000000000000000000000000000000000000602082015250565b6000611cf3602283611505565b9150611cfe82611c97565b604082019050919050565b60006020820190508181036000830152611d2281611ce6565b9050919050565b7f45524332303a20696e73756666696369656e7420616c6c6f77616e6365000000600082015250565b6000611d5f601d83611505565b9150611d6a82611d29565b602082019050919050565b60006020820190508181036000830152611d8e81611d52565b9050919050565b7f45524332303a207472616e736665722066726f6d20746865207a65726f20616460008201527f6472657373000000000000000000000000000000000000000000000000000000602082015250565b6000611df1602583611505565b9150611dfc82611d95565b604082019050919050565b60006020820190508181036000830152611e2081611de4565b9050919050565b7f45524332303a207472616e7366657220746f20746865207a65726f206164647260008201527f6573730000000000000000000000000000000000000000000000000000000000602082015250565b6000611e83602383611505565b9150611e8e82611e27565b604082019050919050565b60006020820190508181036000830152611eb281611e76565b9050919050565b7f45524332303a207472616e7366657220616d6f756e742065786365656473206260008201527f616c616e63650000000000000000000000000000000000000000000000000000602082015250565b6000611f15602683611505565b9150611f2082611eb9565b604082019050919050565b60006020820190508181036000830152611f4481611f08565b9050919050565b7f45524332303a206d696e7420746f20746865207a65726f206164647265737300600082015250565b6000611f81601f83611505565b9150611f8c82611f4b565b602082019050919050565b60006020820190508181036000830152611fb081611f74565b9050919050565b7f45524332303a206275726e2066726f6d20746865207a65726f2061646472657360008201527f7300000000000000000000000000000000000000000000000000000000000000602082015250565b6000612013602183611505565b915061201e82611fb7565b604082019050919050565b6000602082019050818103600083015261204281612006565b9050919050565b7f45524332303a206275726e20616d6f756e7420657863656564732062616c616e60008201527f6365000000000000000000000000000000000000000000000000000000000000602082015250565b60006120a5602283611505565b91506120b082612049565b604082019050919050565b600060208201905081810360008301526120d481612098565b905091905056fe53746f72653a20312e204865616c74682c20322e20536b696e732c20332e20456d626c656d73a264697066735822122025654dda3fe23af4128e1923c6808c82a10a73162cac95c383813b74b3804b7e64736f6c63430008090033",
  "linkReferences": {},
  "deployedLinkReferences": {}
}